:020000040800F2
:10000000800D00209D010008833800084D2C000859
:10001000813800081B0A0008814100080000000028
:10002000000000000000000000000000AF01000818
:100030008D0A000800000000B3010008A538000880
:10004000B7010008B7010008B7010008B7010008B0
:10005000B7010008B7010008B7010008B7010008A0
:10006000B70100088F0A0008950A00081D0A000859
:10007000B7010008B7010008B7010008B701000880
:10008000290A0008350A0008B7010008B70100086E
:10009000B7010008B7010008B7010008B701000860
:1000A000B7010008B7010008B7010008B701000850
:1000B000AD390008B7010008B9390008512C000813
:1000C000B7010008B7010008B7010008B701000830
:1000D000B70100086941000875410008B701000830
:1000E000B7010008B7010008B7010008B701000810
:1000F000B7010008B7010008B7010008410A00086D
:10010000B7010008B7010008B7010008B7010008EF
:10011000B7010008B7010008B7010008B7010008DF
:10012000B7010008B70100084D0A0008B701000830
:10013000B7010008B7010008B7010008B7010008BF
:10014000B7010008B7010008B7010008B7010008AF
:10015000B7010008B7010008590A0008B7010008F4
:10016000B7010008B7010008B7010008B70100088F
:10017000B7010008B7010008B7010008000000003F
:10018000B7010008B7010008DFF80CD000F008FC48
:1001900000480047FD6F0008800D0020064880479A
:1001A00006480047FEE7FEE7FEE7FEE7FEE7FEE75C
:1001B000FEE7FEE7FEE7FEE759390008890100087F
:1001C000421C10F8011B0029FBD1801A70472DE951
:1001D000FE4F804681EA0300C00F0C46009021F0DC
:1001E000004123F00045B8EB0200A94105D240468A
:1001F000214690461C460B46024623F00040104321
:1002000047D0270DC7F30A00C3F30A510290401AE2
:10021000019040286BDAC3F3130040F4801B009870
:10022000924620B10023D2EB030A63EB0B0B01983B
:100230005946C0F14002504600F055FA06460D46B8
:1002400050465946019A00F06DFA10EB08006141E2
:10025000002487EA115284EAE7731A4340D0009AD7
:1002600062B3019A012A4FEA075215DC001B61EBC9
:1002700002014FF0004202EA0752CDE90042001CA1
:1002800041F5801132462B4600F0A4FA03B0BDE8D8
:10029000F08F40462146F9E7001B61EB0201001C8C
:1002A00041F5801300185B412018A2F5001747EBB9
:1002B000030140EAD570B6196D4111E06D084FEAAF
:1002C000360645EAC0754FEA0752001B61EB020192
:1002D000001C41F5801149084FEA300000195141D6
:1002E00032462B4603B0BDE8F04F00F064BA0098E8
:1002F000012240000023D0EB020263EBE073009880
:1003000021464FEAE074B8EB000061EB0401E9E735
:1003100083F000435BE781F0004158E72DE9FE4F91
:1003200081EA030404F0004421F0004100944FF0FE
:10033000000B23F0004350EA01045ED052EA0304AC
:100340005BD0C3F30A54C1F30A552C44A4F2F3342E
:100350000194A0FB0254C1F3130141F48011C3F3D3
:10036000130343F4801301FB024400FB034E840A91
:10037000970A44EA815447EA8357A4FB0768029529
:100380008D0A05FB07854FEA932C04FB0C542705C7
:10039000029D4FEA065847EA1637B5EB08056EEBA3
:1003A000070C870E920E47EA811742EA8312A7FBD9
:1003B0000201B6EB0B0164EB00042B0D43EA0C3396
:1003C0005E1844EB1C50DA465146E7FB0201C5F3C8
:1003D00013044FEA0B3343EA14534FEA0432019CEF
:1003E00043EA0603A4F10C040294009CCDE900B496
:1003F00000F0F0F903B0BDE8F08F00200146F9E706
:100400002DE9F04D81EA030404F0004B21F0004592
:1004100014464FF0000A23F0004150EA050220D0B4
:1004200054EA01021DD0C5F30A570246C5F313036F
:10043000C1F31300C1F30A5640F4801543F480134E
:10044000A7EB0608101BD64608F2FD3873EB050033
:1004500002D308F1010801E092185B41B8F1000FE6
:1004600003DA00200146BDE8F08D00204FF4801132
:10047000064684460EE0171B73EB050705D3121BD7
:1004800063EB050306434CEA010C49084FEA3000D0
:1004900092185B4150EA0107EDD152EA030012D0F5
:1004A00082EA040083EA0501084305D0101BAB4132
:1004B00006D20122002306E000224FF0004302E0B2
:1004C0006FF0010253101AEB06004CEB085110EBD1
:1004D0000A0041EB0B01BDE8F04D00F06CB90EB520
:1004E000C10F80EAE0700844CA07002140F233439C
:1004F0008DE80E000A460B4600F06CF903B000BD13
:100500000EB540F2334102910021CDE900110A46B7
:100510000B4600F05FF903B000BD3EB5CA17CB0F24
:10052000002450405140C0186141DA0740F2334383
:100530000094CDE901232246234600F04BF903B095
:1005400030BD70B5C1F30A5201F000450024C1F37B
:10055000130140F2FF3341F480119A4201DA002086
:1005600070BD40F233439A42A2F2334203DC52425E
:1005700000F0C8F800E090402C43F1D0404270BD3C
:1005800070B5C1F30A5201F000450024C1F3130114
:1005900040F2FF3341F480119A4202DA0020014612
:1005A00070BD40F233439A42A2F2334203DC52421E
:1005B00000F0A8F801E000F096F82C43F0D00023FA
:1005C000D0EB030063EB010170BD00F0004230F09E
:1005D00000400AD0C10D01F56071C0F3160042EA77
:1005E0000151C2084007114370470020014670477F
:1005F00030B5041E71F1000404DB4FF000444042AA
:1006000064EB0101141E73F1000405DB1C464FF07E
:100610000043524263EB04038B4208BF824230BD69
:1006200001F0004330B421F0004150EA010206D04D
:100630000A0DA2F56072C1F31301002A02DC30BC7E
:1006400000207047440F44EAC104C100E01830BCE8
:1006500000EBC25000F078B830B50B4601460020E0
:100660002022012409E021FA02F59D4205D303FA74
:1006700002F5491B04FA02F52844151EA2F10102F5
:10068000F1DC30BD2DE9F05F0546002092469B4627
:1006900088460646814640241BE028464146474698
:1006A000224600F02FF853465A46C01A914110D303
:1006B00011461846224600F016F82D1A67EB01087D
:1006C0004F4622460120002100F00DF817EB0009EB
:1006D0004E41201EA4F10104DFDC484631462A4683
:1006E0004346BDE8F09F202A04DB203A00FA02F1DD
:1006F000002070479140C2F1200320FA03F3194310
:1007000090407047202A04DB203A21FA02F00021B1
:10071000704721FA02F3D040C2F120029140084311
:1007200019467047202A06DBCB17203A41FA02F01F
:1007300043EAE07306E041FA02F3D040C2F120023E
:1007400091400843194670470029A8BF7047401CD4
:10075000490008BF20F00100704710B4B0FA80FCD7
:1007600000FA0CF050EA010404BF10BC704749B114
:10077000CCF1200421FA04F411FA0CF118BF012184
:1007800021430843A3EB0C01CB1D4FEA00614FEA64
:10079000102042BF002010BC704700EBC350104433
:1007A0000029A4BF10BC7047401C490008BF20F0BE
:1007B000010010BC704710B5141E73F1000408DA74
:1007C000401C41F1000192185B411A4301D120F015
:1007D000010010BD2DE9F04D92469B4611B1B1FAD2
:1007E00081F202E0B0FA80F220329046FFF77BFF00
:1007F00004460F4640EA0A0041EA0B0153465A46B6
:10080000084313D0114653EA010019D0C8F1400241
:100810005046FFF777FF05460E465046594642467A
:10082000FFF761FF084305D0012004E02046394668
:10083000BDE8F08D0020054346EAE0762C433743BF
:100840000A986305E40AA0EB08000022FD0A44EAC6
:1008500047540A3002D500200146E9E70105101986
:100860006941DDE9084500196941BDE8F04DA2E79D
:1008700070B521F0004303430CD0C1F30A550024A6
:10088000D5EB040564EB0403D617AD1AB34102DBC4
:100890000020014670BD201841EB025170BD2DE9CA
:1008A000F04D00231A461B1A8A4103DB0020014643
:1008B000BDE8F08DC1F30A52C1F3130141F4801574
:1008C0004FF0000BD10702D100186D41521E0027D6
:1008D000044640F2FF11384601EB620A3E4680466C
:1008E000024600204FF48011FFF70CFFC21971413E
:1008F000BB1846EB0100B4EB030C75EB000C04D302
:10090000E41A65EB000517460E46241908F10100AC
:100910006D4180463428E3DDF91946EB0600091BDA
:10092000A84103D24FF0FF32134601E000221346E4
:100930001BEB070046EB0A51BDE8F04DFFF73BBF4C
:10094000C1F30A52C1F3130140F2FF3341F48011A5
:100950009A4202DA00200146704740F233439A423D
:10096000A2F2334202DC5242FFF7CCBEFFF7BBBE1D
:1009700030B5041E71F1000404DB4FF00044404226
:1009800064EB0101141E73F1000405DB1C464FF0FB
:100990000043524263EB0403994208BF904230BDCA
:1009A000064C074D06E0E06840F0010394E80700BC
:1009B00098471034AC42F6D3FFF7EAFBC095000825
:1009C000E095000870B58C1810F8015B15F007036E
:1009D00001D110F8013B2A1106D110F8012B03E0D8
:1009E00010F8016B01F8016B5B1EF9D12B0705D4E0
:1009F0000023521E0DD401F8013BFAE710F8013B29
:100A0000CB1A921C03E013F8015B01F8015B521E44
:100A1000F9D5A142D8D3002070BDFEE7014800F00F
:100A20003DB80000E0060020014800F037B80000A3
:100A300040080020014800F031B80000980800206C
:100A4000014800F02BB8000038070020014800F0F2
:100A500025B8000090070020014800F01FB80000F2
:100A6000E807002001681823CAB2103AB2FBF3F27B
:100A7000054B6FF30901032A9B5C436500D9091DEF
:100A800001650846704700000A930008FEE7082049
:100A900000F01CB9102000F019B900002DE9F04158
:100AA000056D0446296890F85420082000FA02F2E7
:100AB00011424FF004074FF0000617D021680A6872
:100AC000520713D50A6822F004020A6094F8541001
:100AD0008840A860E06C40F00100E06484F8357064
:100AE00084F83460A16C09B120468847296894F8DD
:100AF0005420514800FA02F2114217D021684A6985
:100B0000120613D54A6922F080024A6194F8541003
:100B10008840A860E06C40F00200E06484F8357022
:100B200084F83460A16C09B120468847296842489E
:100B300094F85420C01C00FA02F2114217D0216828
:100B40000A68920713D50A6822F002020A6094F834
:100B500054108840A860E06C40F00400E06484F821
:100B6000357084F83460A16C09B1204688472A6842
:100B700094F85410102000FA01F31A421BD0216897
:100B80000A68120717D50A6857034FF0310228D5B3
:100B9000AB6020680168090303D400BF84F83520E6
:100BA00005E00068000302D5412084F83500216C7F
:100BB00009B1204688472B6894F85410202000FA89
:100BC00001F2134236D021680B68DB0632D50B6880
:100BD0005B031CD5AA602068016809030DD4616C11
:100BE0000FE00B68DB0503D40B6823F008030B60F0
:100BF00094F854108840A860D0E70068000319D525
:100C0000E16B002916D02046BDE8F04108470A688C
:100C1000D20503D40A6822F010020A6094F8541036
:100C20008840A860E06CE064112084F8350084F806
:100C30003460E5E7BDE8F0810100800070B5040094
:100C40001AD00220636A84F83500226811681848B7
:100C50000140D4E901052843D4E90356354328432C
:100C600065692843A5692843E5692843256A28431F
:100C70000843042B02D005E0012070BDD4E90B131A
:100C800019430843106022685069616A20F0070028
:100C90000843042901D1A16A084350612046FFF7A7
:100CA000E1FE0020E064012084F83500002070BDE2
:100CB0003F8010F031B500F0FFF8044600F0FCF87A
:100CC0000099001B8842F9D338BD7047044910B51C
:100CD0000A68024202D00860FFF7F7FF10BD00006B
:100CE000143C01402DE9F84FDFF888B100224FF0A5
:100CF00001084FF0030A4FF00F090BF1040E00BF7B
:100D00000B6808FA02F42340A3426ED14D68022D0D
:100D100001D0122D0ED1D50800EB850CDCF8205047
:100D20005607F70E09FA07F6B5430E69BE402E4383
:100D3000CCF82060066855000F790AFA05FC07F028
:100D4000030726EA0C06AF40374307604E68012EC2
:100D500005D0022E03D0112E01D0122E0ED186689E
:100D6000CF6826EA0C06AF40374387604668A64343
:100D70000C79C4F30014944034434460C4688E6812
:100D800024EA0C04AE402643C6604C68E4006AD5F1
:100D9000394C256845F480452560246822F0030518
:100DA00004F480440094354C2E19D6F80848950771
:100DB0002F0F09FA07F5AC43314DA84201D10025A8
:100DC00029E0304DA84201D1012524E02E4DA84252
:100DD00001D102251FE02D4DA84201D103251AE0C3
:100DE0002B4DA84202D1042515E03CE0294DA84234
:100DF00001D105250FE0284DA84201D106250AE0C2
:100E0000264DA84201D1072505E0254DA84201D174
:100E1000082500E00925BD402543C6F80858DBF841
:100E200000405D464E689C43F60300D51C432C6091
:100E3000DEF8004075464E689C43B60300D51C435F
:100E40002C600C4D08352C684E689C43F60200D58A
:100E50001C432C60074D0C352C684E689C43B60231
:100E600000D51C432C60521C102AFFF449AFBDE88A
:100E7000F88F0000003C014044380240003001403F
:100E8000000002400004024000080240000C024042
:100E9000001002400014024000180240001C0240F2
:100EA0000020024042694A40426170470AB18161B4
:100EB00070470904FBE70000014800687047000024
:100EC000A0020020704770B590F83E10026810290B
:100ED0001DD090F83E10402919D05169C1F340054A
:100EE00051685369C1F340219469C3F30013C4F3FB
:100EF0008004ADB3A1B393690021DB435B0700D548
:100F000001219269D243120645D5828944E0916954
:100F1000C9434907516924D4C1F3C0155168C1F3CD
:100F2000802451695368C1F38001C3F340230DB19C
:100F300004B139B100290BD0002B09D0BDE87040B5
:100F400002F020B8418D21B9506820F480605060D3
:100F500070BD416A4A1C42620268097811617EE0F4
:100F60001EE0C1F380135168C1F3802451695268B7
:100F7000C1F38001C2F340220BB104B139B10029A1
:100F8000E6D0002AE4D0BDE8704001F07BBEBDE8A9
:100F9000704001F0EBBE028B92B2FFF793FF70BD81
:100FA00023B119B1BDE8704002F0BEB851692823E1
:100FB000D4B3C1F3C0145168C1F38025516952689C
:100FC000C1F38001C2F340220CB105B139B100294F
:100FD000E5D0002AE3D0418D0029BAD170BD418D02
:100FE0000029FBD0416A4A1C4262026809781161FB
:100FF000418D491E4185418D0029EFD190F83D106A
:101000002929EBD101684A6822F480624A6090F88D
:101010003D1090F83E2001F003010A43026380F87E
:101020003D3000F0A2FB70BDFFE7C1F380145168B2
:10103000C1F3802551695668C1F38001C6F340268B
:101040000CB105B179B10029EDD0002EEBD0418D66
:101050000029E8D01269416A4B1C43620A70418D35
:10106000491E4185DFE7418D0029DCD01269416AC4
:101070004C1C44620A70418D491E4185418D0029F6
:10108000D1D190F83D102A29CDD101684A6822F4C7
:1010900080624A6090F83D1090F83E2001F0030114
:1010A0000A43026380F83D3000F05EFBBBE70000BE
:1010B00070B5040004D094F83D00002510B106E09E
:1010C000012070BD84F83C50204600F0EDFA242049
:1010D00084F83D002068016821F00101016000F002
:1010E00091FC33492268B0FBF1F15160314A6368E9
:1010F000934206D94FF4967359434FF47A73B1FB78
:10110000F3F12368491C1962616891420BD84900C8
:10111000B0FBF1F2C2F30B02042A01D2042019E061
:10112000B0FBF1F016E0A3689BB301EBC10202EB48
:101130000112B0FBF2F242F48042120530D04BB300
:1011400001EBC10202EB0111B0FBF1F040F4804071
:1011500040F400402168C861D4E9070108432168D0
:101160000860D4E90310084321688860D4E90501C8
:1011700008432168C8602068016841F001010160EE
:101180002564202084F83D00256384F83E5000202B
:1011900070BD00E006E001EB4102B0FBF2F2CCE7EB
:1011A0000120D7E701EB4101B0FBF1F0D0E70000EF
:1011B00040420F00A0860100704770477047000052
:1011C0002DE9F843044690F83D00DDF820901E46D6
:1011D0001546884620287DD142F2107301226A49C3
:1011E000204601F0D9FF0028F5D194F83C000128F1
:1011F00070D0012084F83C002068016821F400616F
:101200000160222084F83D00102084F83E00002771
:1012100027645E48E0624A464146204601F0FFFDF1
:1012200028B1206C84F83C7004283CD076E0E6B10C
:10123000012E23D02068DFF85881022E016835D0B6
:1012400041F4806101602068416980690090032E4B
:1012500076D8012E1FD0022E34D04B4600224146B4
:10126000204601F099FFB0BB46E0206841698169E2
:101270000091016841F4007101607AE02068016822
:1012800021F48061016020684169816900910168F1
:1012900041F4007101604946204602F00BF8D8B1D4
:1012A000206C20283AD00120BDE8F88321F4806129
:1012B00001602068016841F40061016020684169B3
:1012C000806900904B4600224146204601F064FFB1
:1012D00008B905E056E021E020680069287048E080
:1012E0002068016841F4007101602068006928707D
:1012F0002068006968703CE02068016821F4806122
:1013000001602068006905F8010B761EB6B24B46F5
:1013100000224146204601F03FFF08B10320C3E709
:101320002068016841F4007101602068006905F8D7
:10133000010B2068006905F8010BB61E15E0FFE7F8
:101340004946204601F0B6FF0028A9D1206800696F
:1013500005F8010B2068761EB6B24169C9434907FA
:1013600004D4006905F8010B761EB6B2002E7FF496
:101370006EAF202084F83D0084F83E7084F83C7005
:10138000002091E702208FE7020010000000FFFF1D
:10139000040001002DE9F84F044690F83D00DDF807
:1013A00028B01D461646884620287CD142F210738C
:1013B00001224549204601F0EFFE002873D194F840
:1013C0003C0001287DD0012084F83C0020680168A1
:1013D00021F400610160212084F83D00102084F890
:1013E0003E00002727643948E0625A4641462046BD
:1013F00001F080FD28B1206C84F83C7004285ED098
:101400000FE02068B846416980694FF020090090DC
:101410003EE05946204601F081FF28B1206C0428A7
:1014200048D00320BDE8F88F216816F8010B086149
:1014300020686D1EADB24169C943490705D425B185
:1014400016F8011B01616D1EADB25F46FFF734FD5A
:10145000824618E0204601F001FC0028DED1781C0D
:1014600011D02FB1FFF728FDA0EB0A00B8420AD92E
:10147000206C40F020012164C4F8308084F83D9055
:1014800084F83C80CAE720684069C0434007E1D443
:10149000002DBED154F81F0B016841F400710160AA
:1014A00084F81E9000E00CE084F81F8084F81D8012
:1014B0000020B7E72068016841F400710160012055
:1014C000B0E70220AEE70000020010000000FFFFBE
:1014D000704770472DE9F84F04460AA8984690E8EF
:1014E000600294F83D0092468B4620287CD142F25F
:1014F000107301226949204601F04EFE0028F5D103
:1015000094F83C0001286FD0012084F83C0020684A
:10151000016821F400610160222084F83D00402030
:1015200084F83E00002727645D48E0624346524647
:1015300059462046CDF8009001F084FD28B1206C7A
:1015400084F83C70042837D072E0BEB1012E1ED062
:10155000DFF850812068022E31D041698069009007
:10156000032E77D8012E1FD0022E35D04B460022F5
:101570004146204601F010FEB8BB47E020684169B3
:1015800081690091016841F4007101607BE020688D
:10159000016821F4806101602068416981690091DE
:1015A000016841F4007101604946204601F082FE65
:1015B000E0B1206C20283BD00120BDE8F88F016805
:1015C00021F4806101602068016841F400610160DC
:1015D00020684169806900904B46002241462046C0
:1015E00001F0DAFD08B905E056E021E02068006965
:1015F000287048E02068016841F4007101602068AB
:10160000006928702068006968703CE02068016803
:1016100021F4806101602068006905F8010B761EE5
:10162000B6B24B4600224146204601F0B5FD08B156
:101630000320C2E72068016841F40071016020685E
:10164000006905F8010B2068006905F8010BB61E5A
:1016500015E0FFE74946204601F02CFE0028A8D1FE
:101660002068006905F8010B2068761EB6B2416952
:10167000C943490704D4006905F8010B761EB6B2C8
:10168000002E7FF46DAF202084F83D0084F83E707A
:1016900084F83C70002090E702208EE702001000E2
:1016A0000000FFFF040001002DE9F041064600683C
:1016B000274986B0884247D14FF4407000901220ED
:1016C00001900120029003200390042004906946B9
:1016D0002048FFF707FB20480024016841F400116F
:1016E000016000681E4D00F4001005901B48286042
:1016F0004705C5E901744FF48068C5E903486C618A
:10170000AC61EC612C6228466C62FFF797FAB56316
:10171000AE631248134DA830E5E802074020A5E863
:101720001101104845F81449AC61EC612C626C62FF
:10173000FFF784FA7563002211461F20AE6300F0A4
:1017400075F81F2000F067F806B0BDE8F0810000D2
:101750000054004000040240403802401060024043
:10176000E0060020380700207047704702480168F3
:10177000491C016070470000A00200200B4810B512
:10178000016841F400710160016841F48061016009
:10179000016841F480710160032000F067F80020C7
:1017A00000F006F800F015F8002010BD003C0240E3
:1017B00010B5044600F00CF94FF47A71B0FBF1F06B
:1017C00000F003FB00222146501E00F02FF80020FD
:1017D00010BD10B5032000F049F8002211466FF04B
:1017E0000B0000F023F8002211466FF00A0000F011
:1017F0001DF8002211466FF0090000F017F80022D2
:101800001146101F00F012F80022BDE810401146EA
:10181000501E00F00BB800F01F020121914040095A
:10182000800000F1E020C0F800117047F0B40E4BCA
:101830001B680C46C3F30223C3F10705042D00D92E
:101840000425191D072901D2002300E0DB1E012613
:1018500006FA05F1491E214099409E40761E164029
:101860003143F0BC02F00EB80CED00E0064900F088
:10187000070208684FF6FF03184040EA0220034AB7
:1018800010430860704700000CED00E00000FA050E
:101890002DE9F047DFF830A105460F46DAF80000E1
:1018A00000F00F01F8B28146B94208D201468AF829
:1018B0000010DAF8000000F00F00B8426AD1287872
:1018C000424C800705D52068A96820F0F000084345
:1018D00020602878C0074FD03C4968680839012843
:1018E00019D002281AD0032818D0096889070029BE
:1018F00050DA216821F0030101432160FFF7DCFA8F
:101900000646686841F28838012810D002281AD0AB
:1019100003281ED02CE009688903E8E709688901DB
:10192000E5E700BFFFF7C8FA811B41451DD82068D5
:10193000C0F381000128F5D11EE000BFFFF7BCFA1B
:10194000811B414511D82068C0F381000228F5D1E0
:1019500012E02068FFF7B0FA801B4045F9D904E097
:10196000FFF7AAFA811B414502D90320BDE8F087A1
:10197000206810F00C0FF3D1DAF80010504601F097
:101980000F01B94208D980F80090006800F00F00FC
:10199000B84201D00120E9E72878400705D5206842
:1019A000E96820F4E050084320602878000706D555
:1019B0002068296920F4604040EAC10020600020CE
:1019C000FFF7F6FE0020D1E7003C02400838024055
:1019D00010B500F043F808490968F02292FAA2F223
:1019E00001F0F001B2FA82F2D140044A515CC840E1
:1019F0000349086010BD0000083802401293000837
:101A00009C02002010B5FFF7E3FF074909684FF477
:101A1000E05292FAA2F201F4E051B2FA82F2D1401D
:101A2000024A515CC84010BD0838024012930008B9
:101A300010B5FFF7CDFF074909684FF4604292FAED
:101A4000A2F201F46041B2FA82F2D140024A515C42
:101A5000C84010BD083802401293000830B519483C
:101A6000006810F00C01184812D0441004290ED060
:101A700008290DD11349091F0A6802F03F030A68BB
:101A8000550247F6C07204D5B4FBF3F003E02046DC
:101A900030BDB0FBF3F00B680968134092FAA2F274
:101AA000B2FA82F2D34058434FF4403292FAA2F293
:101AB00001F44031B2FA82F2D140491C4900B0FB36
:101AC000F1F030BD083802400024F4002DE9F84F51
:101AD0000446DFF8CC820078A8F1040BC007ABF114
:101AE000040537D0D8F800104046C1F38101012920
:101AF00008D00068C0F3810002280AD1DBF800009A
:101B0000400206D52868800324D56068002878D074
:101B100020E0A3492079891F0870606868B1FFF749
:101B2000CBF9064605E000BFFFF7C6F9801B642825
:101B300068D828688003F7D50CE0FFF7BDF90646A2
:101B400005E000BFFFF7B8F9801B6428F0D82868CB
:101B50008003F7D42078934E80074FF0010A4FF0AE
:101B6000000742D5D8F80010404611F00C0F08D0FD
:101B70000068C0F3810002280AD1DBF800004002AF
:101B800006D42868800714D5E068012839D110E010
:101B9000E068D8B1C6F800A0FFF78EF9814605E0ED
:101BA000FFF78AF9A0EB09000228C1D8286880074E
:101BB000F6D52868F82292FAA2F22169B2FA82F2E6
:101BC00020F0F8009140084328600EE03760FFF7EE
:101BD00073F9814606E000BFFFF76EF9A0EB09003C
:101BE00002280FD828688007F6D42078000728D567
:101BF0006D486169A1B1C0F800A0FFF75DF98146A9
:101C000008E0CAE079E000BFFFF756F9A0EB090051
:101C1000022872D862486C3000688007F4D510E062
:101C20000760FFF749F9814606E000BFFFF744F976
:101C3000A0EB0900022860D859486C300068800782
:101C4000F4D42078400749D555483830016841F030
:101C500080510160006800F0805000905348016896
:101C600041F480710160FFF727F9814606E000BF6B
:101C7000FFF722F9A0EB090002283ED84B48006884
:101C8000C005F5D5DFF81891207A09F1680989F8BF
:101C90000000A06888B1FFF70FF9009008E000BFCE
:101CA000FFF70AF90099411A41F2883081426CD855
:101CB000D9F800008007F3D510E0FFF7FDF8009099
:101CC00008E000BFFFF7F8F80099411A41F28830A8
:101CD00081425AD8D9F800008007F3D4A069E0B354
:101CE000D8F80010C1F38101022956D002283766C6
:101CF00004D0FFF7E1F804464AE046E0FFF7DCF8DD
:101D0000074604E0FFF7D8F8C01B02283DD8286832
:101D10008001F7D4D4E90701084347F6C07292FA6C
:101D2000A2F2616AB2FA82F29140A26A4FF0FF33E6
:101D300003EB52024FF4403393FAA3F3B3FA83F365
:101D40009A40114308434FF0706292FAA2F2E16A9E
:101D5000B2FA82F29140084300E01CE0CBF80000A8
:101D6000C6F860A0FFF7A8F8044604E0FFF7A4F85F
:101D7000001B022809D828688001F7D50BE000BFB6
:101D8000FFF79AF8001B022802D90320BDE8F88F5C
:101D900028688001F4D40020F8E70120F6E700006D
:101DA0000838024000004742800E47420070004061
:101DB0004FF0E0210428086903D020F004000861F6
:101DC000704740F00400FAE7704710B5401EB0F1CC
:101DD000807F01D3012010BD4FF0E02460610F210E
:101DE000601701F04FFD0020A06107202061002056
:101DF00010BD10B5FFF7E8FF10BD7047704730B554
:101E000090F83820012A20D0012280F838200223BF
:101E100080F8393003685C6824F070045C60036803
:101E20005C680D682C435C6003689C6824F0800447
:101E30009C6003689C6849680C439C6080F839206A
:101E4000002180F83810084630BD022030BD10B5A2
:101E5000040003D094F8390010B107E0012010BD50
:101E6000002084F83800204600F00CF8022084F8A6
:101E70003900211D206801F0A5FD012084F83900FA
:101E8000002010BD30B5026800242548022103233C
:101E900087B0B2F1804F0CD0224DAA4222D1016806
:101EA00041F002010160006800F00200059007B0F7
:101EB00030BD026842F001020260006800F00100DB
:101EC00005900F208DE813000120CDE9033069460D
:101ED0001548FEF707FF002211461C20FFF7A6FC5D
:101EE0001C201AE0114DAA42E1D1026842F004021E
:101EF0000260006800F0040005904FF420408DE877
:101F00001300CDE9033169460948FEF7EBFE0022D4
:101F100011461E20FFF78AFC1E20FFF77CFCC6E757
:101F20004038024000040040000002400008004029
:101F3000000C024070B5044690F83800012817D014
:101F4000012584F83850022084F83900206882681E
:101F500022F0770222F47F4282600868502837D04E
:101F60000DDC202859D005DC88B3102841D151E080
:101F7000022070BD302853D040283AD13FE060287D
:101F80002ED070280BD0B0F5805F03D0B0F5005F85
:101F90002FD110E02068816821F0070115E0CB689F
:101FA000D1E90121206801F078FD2168886840F0BE
:101FB000770088601DE0CB68D1E90121206801F03D
:101FC0006CFD2068816841F48041816011E01EE071
:101FD000CA684968206801F029FE5021206806E09F
:101FE000CA684968206801F075FE6021206801F028
:101FF0005EFD84F83950002084F8380070BDCA684E
:102000004968206801F012FE40212068EFE70021B6
:102010002068ECE710212068E9E720212068E6E746
:1020200030212068E3E700002DE9F05FB149044664
:1020300000680968012500274FF65F784DF6FF79A3
:102040004FF6FF7688420BD1207E012835D1DFF88C
:10205000A8A2DFF8A8B29AF8000010B1012813D0A6
:10206000D2E00021204600F0BAFBCBF800008AF84D
:1020700000502068016A4FF6F57211400162206835
:10208000016A41F0020117E00021204600F0A7FBA1
:102090009B490860DBF80010411A9A48016001D59D
:1020A000314401608AF800702068016A4FF6F572C9
:1020B000114001622068016A0162207E022833D14A
:1020C000DFF844A2DFF844B29AF8000010B101280A
:1020D00012D099E00421204600F081FBCBF80000EB
:1020E0008AF800502068016A01EA0801016220684C
:1020F000016A41F0200116E00421204600F06FFB48
:1021000083490860DBF80010401A8249086001D555
:10211000304408608AF800702068016A01EA08010A
:1021200001622068016A0162207E042835D1DFF84F
:10213000E8A1DFF8E8B19AF8000010B1012813D047
:1021400062E00821204600F04AFBCBF800008AF844
:1021500000502068016A4FF2FF521140016220686E
:10216000016A41F4007117E00821204600F037FBB6
:102170006B490860DBF80010401A6A49086001D515
:10218000304408608AF800702068016A4FF2FF52FC
:10219000114001622068016A0162207E082833D163
:1021A000DFF884A1DFF884B19AF8000010B10128AB
:1021B00012D029E00C21204600F011FBCBF80000E2
:1021C0008AF800502068016A01EA0901016220686A
:1021D000016A41F4005116E00C21204600F0FFFA9C
:1021E00053490860DBF80010401A5249086001D5D5
:1021F000304408608AF800702068016A01EA090129
:1022000001622068016A01624B49206809688842BE
:1022100047D1207E022820D1DFF820A1DFF820B1AD
:102220009AF80000F0B301283BD10421204600F0C9
:10223000D6FA44490860DBF80010401A42490860A9
:1022400001D5304408608AF800702068016A01EA0C
:10225000080101622068016A0162207E082820D1FD
:10226000DFF8E880DFF8E8A098F8000078B345468A
:10227000012816D10C21204600F0B1FA354908603A
:10228000DAF80010401A3449086001D5304408607B
:102290002F702068016A01EA090101622068016A61
:1022A000016200E001E0BDE8F09F0421204600F05B
:1022B00096FACBF800008AF800502068016A01EA1B
:1022C000080101622068016A41F02001C4E7FFE7CC
:1022D0000C21204600F083FACAF8000088F800506C
:1022E0002068016A01EA090101622068016A41F47B
:1022F0000051D5E7EC0200205C0200206C020020B7
:1023000084020020080100205D02002070020020ED
:10231000880200200C0100205E02002074020020D0
:102320008C020020100100205F02002078020020B3
:1023300090020020140100206403002060020020AD
:102340007C0200209402002018010020610200207D
:1023500080020020980200201C0100202DE9F0419D
:10236000044690F838000D4601283DD0012684F837
:102370003860022084F83900AAB3042A46D02068C5
:10238000082A55D0D5E90027E968036A23F4805369
:102390000362D0F81CC0036A2CF4407C4CEA072787
:1023A0004FF6FF7C27F470470CEA013139434FF4B4
:1023B000204723F4204307EA02321A43C161026234
:1023C0002068C16921F44061C1612068C169AA68BF
:1023D00041EA0221C0F81C1084F83960002084F81A
:1023E0003800BDE8F08101E00220FAE7D5E90012EB
:1023F000EB68206801F02CFC2068816921F00C0159
:10240000816120688169AA6811430FE0D5E9001253
:10241000EB68206801F070FC2068816921F440615C
:10242000816120688169AA6841EA02218161D3E75C
:10243000D5E9002C2F7B016A21F480710162C1690A
:10244000036A21F0030141EA0C0121F0F00C390785
:102450004FF420674CEA116123F4206307EA02225B
:102460001A43C16102622068C16921F00C01C16197
:102470002068C169AA681143ACE710B5040003D015
:1024800094F8390010B107E0012010BD002084F855
:102490003800204600F00CF8022084F83900211D95
:1024A000206801F08FFA012084F83900002010BD67
:1024B000704710B50268044631B1042908D00829D4
:1024C00015D00C2908D116E0D06840F0020002E0D7
:1024D000D06840F00400D0600122206801F0D2FAF8
:1024E0002068016841F001010160002010BDD06842
:1024F00040F00800EFE7D06840F01000EBE770B55F
:102500000446006801694FF00005C943890715D4E6
:10251000C168C943890711D4E91E016101202076F1
:10252000206880698007204602D0FFF77DFD04E027
:1025300000F0B2F8204600F034F9257620680169F1
:10254000C943490717D4C168C943490713D46FF079
:1025500004010161022020762068806910F4407F28
:10256000204602D0FFF760FD04E000F095F8204619
:1025700000F017F9257620680169C943090716D4C8
:10258000C168C943090712D46FF008010161042032
:1025900020762068C0698007204602D0FFF744FDFE
:1025A00004E000F079F8204600F0FBF8257620687A
:1025B0000169C943C90617D4C168C943C90613D400
:1025C0006FF010010161082020762068C06910F4C6
:1025D000407F204602D0FFF727FD04E000F05CF8C2
:1025E000204600F0DEF8257620680169C943C90756
:1025F00008D1C168C943C90704D1891E01612046B9
:1026000000F0ECF820680169C943090609D4C168E3
:10261000C943090605D46FF0800101612046FFF728
:10262000ECFB20680169C943490609D4C168C94364
:10263000490605D46FF040010161204600F0F1F831
:1026400020680169C94389060BD4C168C94389065A
:1026500007D46FF0200101612046BDE87040FFF70C
:10266000CDBB70BD00B50068094985B088420DD169
:102670004FF47070009002200021CDE90101032188
:10268000CDE9031069460348FEF72CFB05B000BDF9
:102690000004004000080240704770B5044690F8FE
:1026A00038000D4601280DD0012684F8386002203C
:1026B00084F8390042B1042A18D0082A2AD00C2AFA
:1026C0004DD139E0022070BD206801F0F9F9206891
:1026D000816941F0080181612068816921F004016C
:1026E0008161206881692A69114311E0206801F045
:1026F00013FA2068816941F4006181612068816971
:1027000021F480618161206881692A6941EA02219E
:10271000816124E0206801F031FA2068C16941F04C
:102720000801C1612068C16921F00401C16120680C
:10273000C1692A69114311E0206801F04FFA20684D
:10274000C16941F40061C1612068C16921F48061FF
:10275000C1612068C1692A6941EA0221C16184F826
:102760003960002084F8380070BD10B5040003D033
:1027700094F8390010B107E0012010BD002084F862
:102780003800204600F00CF8022084F83900211DA2
:10279000206801F017F9012084F83900002010BDED
:1027A0007047704710B504460068012201F06AF9CD
:1027B00008492068884202D00749884203D1416C09
:1027C00041F4004141642068016841F00101016069
:1027D000002010BD0000014000040140704790F847
:1027E00038300022012B0AD0012380F8383041B163
:1027F000042909D008290AD00C290DD10AE00220A9
:10280000704701684A6B07E001688A6B04E0016861
:10281000CA6B01E001680A6C002180F8381010468C
:1028200070477047704738B5044600680168C26851
:1028300011F0010F02F4807207D032B101684168D3
:102840000091E16B41F00101E16301684269C1F36C
:10285000400102F0010239B132B1016841680091D2
:10286000E16B41F00401E16301684269C1F3800159
:1028700002F0010239B132B1016841680091E16BA7
:1028800041F00201E16301684269C1F3C00102F055
:10289000010239B132B1016841680091E16B41F048
:1028A0000801E1630168C068C1F3401100F0200035
:1028B00019B110B1204601F03AFA21680868C968D8
:1028C000C0F3C01001F0800118B111B1204601F031
:1028D000CFFB21680868CA68C0F3801002F040028C
:1028E000202548B142B1CA68204622F04002CA60A1
:1028F00084F8395000F075F9E06B002806D084F8B0
:10290000395084F83A502046FFF78CFF38BD70B537
:10291000040004D094F83900002510B106E001202D
:1029200070BD84F83850204600F022F8242084F846
:1029300039002068C16821F40051C160204601F0CF
:1029400041FA2068016921F49041016120684169E0
:1029500021F02A0141612068C16841F40051C16041
:10296000E563202084F8390084F83A00002070BD27
:102970002DE9F04705460068DFF824C10221002454
:102980000122032307278E0686B04FF480694FF09B
:10299000400A60453DD14348D0F800C04CF0100CCF
:1029A000C0F800C0006800F01000059058028DE8E3
:1029B0008F0069463C48FEF795F93D4F3B48B046CD
:1029C0003860C7E90164C7E9034980157C61C7E93C
:1029D00006403C624E4638467C62FEF72FF96F6334
:1029E000BD63344F3148C7E903467C61BC61FC617B
:1029F0003C6278307C6287E801053846FEF71EF9B4
:102A00002F63002211462520BD63FEF70FFF25200E
:102A100040E0DFF8A4C060453ED12248001FD0F856
:102A200000C04CF4003CC0F800C0006800F4003066
:102A3000059060208DE88F0069462048FEF752F926
:102A4000204F1F48B0463860C7E90164C7E9034911
:102A50007C61BC61FC613C624E4638467C62FEF79C
:102A6000EDF86F63BD63184F1548C7E903467C61F5
:102A7000BC61FC613C6218307C6287E80105384625
:102A8000FEF7DCF82F63002211462620BD63FEF717
:102A9000CDFE2620FEF7BFFE06B0BDE8F0870000A1
:102AA00000100140443802400000024040640240EF
:102AB00090070020E807002000440040000C02407E
:102AC00088600240400800209808002090F83A30C2
:102AD000202B25D111B30AB390F83830012B1FD029
:102AE000012380F8383081628285C2850021C1636C
:102AF000222280F83A200268D36843F48073D360BE
:102B00000268536943F00103536180F8381000688C
:102B1000C16841F02001C16000207047012070476A
:102B200002207047034900680968884201D105F016
:102B3000BFBF7047A00300202DE9F041044690F884
:102B4000390098460D46202849D105B3FAB194F8CA
:102B50003800012843D0012084F838000026E663BD
:102B6000212084F83900A284E2844FF48057E08C5D
:102B70004346401EE084A0684FF00002B8424FF088
:102B80008001204611D101F0A4FAF8B902E0012039
:102B9000BDE8F08128882168C0F3080048602069FA
:102BA00008B16D1C08E0AD1C06E001F092FA68B9AE
:102BB000216815F8010B4860E08C0028D7D1434606
:102BC00000224021204601F084FA08B10320DFE70B
:102BD000202084F8390084F838600020D8E70220EB
:102BE000D6E7704710B5782200211E2000F0C0FB08
:102BF000202201211E2000F0BBFB00220221BDE8A3
:102C000010401E2000F0B4BB10B586B00446002072
:102C1000039004906422062103A88DE80700012395
:102C200003223C210848FEF755FCBDF80C0040BAD1
:102C30002080BDF80E0040BAA080BDF8100040BA58
:102C4000608006B010BD0000A8020020FEE7000072
:102C50000148FEF738B90000A802002001684A695F
:102C6000D24352050CD46FF480624A61042101649E
:102C7000002140F8301F2022427301730120704769
:102C80000020704710B5438D374A0168032B03D0ED
:102C9000438D022B1ED013E0C36A042B05D0C36AF8
:102CA000082B02D0C36A934209D1C26A022A0A6879
:102CB00002D022F4806201E042F480620A6001687E
:102CC0000A69416A4B1C43620A70418D491E418565
:102CD000002010BDC36A042B18D0C36A082B15D07E
:102CE000C36A934212D0C26A022A0A6802D022F44E
:102CF000806201E042F480620A6090F83D1090F832
:102D00003E2001F003010A43026305E01222026340
:102D10000A6842F400720A6001680A69416A4B1C41
:102D200043620A70418D491E418501680A69416A02
:102D30004B1C43620A70418D491E418501684A68F7
:102D400022F440724A6090F83E3020220021402B4D
:102D500080F83D2080F83E1002D0FEF72EFAB7E74B
:102D6000FEF7B6FBB4E700000000FFFF10B5428D90
:102D70000168032A08D90A69416A4B1C43620A7038
:102D8000418D491E418545E0022A08D0032A06D01C
:102D9000C26A022A0A6817D022F4806216E0C26A68
:102DA000022A0A6807D022F480620A6001680A6871
:102DB00042F4006201E042F480620A600068416807
:102DC00021F48061416025E042F480620A6001687C
:102DD0004A6822F4E0624A6001680A69416A4B1C51
:102DE00043620A70418D491E418590F83E300021B2
:102DF0002022402B90F83D3090F83E4003F0030332
:102E000044EA0304046380F83D2080F83E1003D0B8
:102E1000FEF7D3F9002010BDFEF75AFBFAE72DE9C3
:102E2000F8430446C06A0D469146042809D0E06A7A
:102E3000012806D0E06A10F5803F02D0206B1128EF
:102E400009D12068016841F480610160206801684F
:102E500041F48071016013464FF00117002239469A
:102E6000204600F099F998BB206907F10108B0F5F8
:102E7000804F10D00620216800EAD51646F0F000F9
:102E800008614A46F91D204600F0CEF938B1206CA1
:102E900004282CD01CE0E8B240F001001DE02168BD
:102EA000E8B208614A464146204600F0BDF90028D4
:102EB000EDD12068416981690091016841F4807118
:102EC00001604B4600223946204600F065F910B1FA
:102ED0000320BDE8F88346F0F100216808614A4606
:102EE0004146204600F0A0F90028D0D1F1E70120AA
:102EF000EFE7000070B50446C06A0D461646042888
:102F000009D0E06A012806D0E06A10F5803F02D0BF
:102F1000206B122804D12068016841F4807101609F
:102F2000134600224FF00111204600F035F998B900
:102F30002069B0F5804F11D00620216800EAD51035
:102F400040F0F000086132460D49204600F06CF96F
:102F500038B1206C042810D0032070BD05F0FE00AD
:102F600000E0E8B22168086105493246891F204621
:102F700000F05AF90028ECD170BD012070BD0000AE
:102F80000800010010B5418D026841B1416A4B1C37
:102F9000436209781161418D491E41851EE0C46A72
:102FA00000212023042C1BD0C46A082C18D0C46A2A
:102FB00014F5803F14D0546824F4E064546090F811
:102FC0003D2090F83E4002F003021443046380F871
:102FD0003E1080F83D3000BFFEF7F0F8002010BD35
:102FE000546824F4E06454600268146844F4007483
:102FF000146090F83E200163402A80F83D3080F84C
:103000003E10E9D1FEF765FAE8E700007CB5164608
:1030100040060022040E01920A201D468DF804107D
:103020000090012301AA21460548FEF7B3F9642068
:1030300000902B46324621460148FEF7C1F87CBD80
:10304000A80200202DE9F84F044600680F46DDF87D
:1030500028B001689846164641F4806101602068F6
:10306000016841F4807101604FF001195B46002254
:103070004946204600F090F8F0BB216807F0FE00BA
:10308000086109F1010A5A465146204600F0CCF881
:1030900018B1206C042811D036E02068416980699D
:1030A00000905946204600F039F950B1206C0428B0
:1030B0002AD12068016841F4007101600120BDE857
:1030C000F88FF5B2B8F1010F08D02168300A086115
:1030D0005946204600F022F90028E7D12068056112
:1030E0005946204600F01AF90028DFD1206801680F
:1030F00041F48071016000E006E05B460022494631
:10310000204600F049F808B10320D8E72168F8B25A
:1031100040F0010008615A465146204600F084F80C
:103120000028B6D1CBE7000008B501684A6822F450
:10313000E0624A600268002153690093136843F01B
:10314000010313600268136823F48063136090F82E
:103150003D20282393434FF0200207D0036B222BFE
:103160000ED090F83D30222B0AD010E0094BC362FC
:10317000016380F83D2080F83E10FEF71DF806E060
:10318000016380F83D2080F83E10FEF7EDFA002044
:1031900008BD00000000FFFF2DE9F05F1E469046CD
:1031A0000D460446FDF788FE81464FF0000A4FF0B9
:1031B000200BC5F30747B8F1000F09D026E0701CBB
:1031C00006D0D6B1FDF778FEA0EB0900B04214D8C6
:1031D0002068012F06D0806925EA00000004000C59
:1031E0001DD0ECE74069F7E7701C0FD02EB1FDF75A
:1031F00063FEA0EB0900B04208D944F830AF84F870
:103200000DB084F80CA00320BDE8F09F2068012FCA
:1032100007D0806925EA00000004000CE4D00020FB
:10322000F2E74069F6E700002DE9F04791460D46C8
:103230000446FDF741FE824600264FF02008C5F304
:1032400007472AE020684069C043400512D420683F
:10325000016841F40071016021686FF48060486189
:1032600004202064266384F83D8084F83C600120BB
:10327000BDE8F087B9F1FF3F0FD0B9F1000F05D0DD
:10328000FDF71AFEA0EB0A01494506D944F8306F54
:1032900084F80D8026730320EAE72068012F07D009
:1032A000D0F8180025EA00000004000CE0D0C9E7BF
:1032B0004069F7E72DE9F04188460446FDF7FCFD3B
:1032C00000250646202722E04069C043C0060CD4F2
:1032D00021686FF0100048612564256384F83D7013
:1032E00084F83C500120BDE8F081B8F1000F04D013
:1032F000FDF7E2FD811B414509D954F8400F40F02C
:10330000200044F80409677025700320EBE720686B
:103310004169C9434906D7D40020E4E770B50D469A
:103320000446FDF7C9FD06461AE02046FFF796FC65
:1033300008B1012070BD681C12D025B1FDF7BCFD9D
:10334000801BA8420CD954F8400F40F0200044F8EC
:10335000100900202060202161732073032070BDBC
:1033600020684069C0430006DFD4002070BD000023
:103370001CB540068DF80410010E64208DF8052060
:103380000090022301AA0248FEF704F81CBD0000C9
:10339000A802002070B5044600226A216820FFF7C9
:1033A000E7FF022237216820FFF7E2FF00226B21AE
:1033B0006820FFF7DDFF6420FDF77CFC2179207891
:1033C000402202EA811200F0070002436B216820CC
:1033D000FFF7CEFF6420FDF76DFCE0781A2100F0C6
:1033E00007026820FFF7C4FF6078182505EAC002CD
:1033F0001B216820FFF7BCFFA0781C2105EAC00252
:103400006820FFF7B5FFBDE87040032000F062B808
:1034100010B586B004460020059003900490012367
:103420000DF115023A216820FFF7F0FD9DF8150017
:10343000002816D06422062103A88DE80700012386
:103440003B22D0210848FEF745F8BDF80C0040BAF1
:103450002080BDF80E0040BA6080BDF8100040BA70
:10346000A08006B010BD0000A802002010B586B0F4
:1034700004466422062103A88DE8070001234322A5
:10348000D0210948FEF726F8BDF80C00BDF8102041
:1034900041BABDF80E00218040BA404252BA608065
:1034A0005042A08006B010BDA80200201FB56422C3
:1034B000022103A88DE8070001234122D0210448FE
:1034C000FEF708F8BDF80C0004B040BA00B210BD19
:1034D000A8020020024619216820FFF749BF00001A
:1034E00001B582B0002001904FF48070009001235C
:1034F00002AAEE210A48FDF74DFF64200090032345
:1035000001AAEE210648FDF75BFE9DF804009DF838
:103510000510000440EA01209DF8061008430EBD86
:10352000A802002001B582B0002001904FF4807005
:103530000090012302AAEE210748FDF72BFF64202B
:103540000090022301AAEE210348FDF739FEBDF8E1
:10355000040040BA0EBD0000A802002001B582B0F0
:103560004FF480700090012302AAEE210148FDF77C
:1035700011FF0EBDA802002010B51E20FFF7EEFFC0
:103580006420FDF797FBA220FFF7CCFF0B4C608077
:10359000A420FFF7C7FFA080A620FFF7C3FFE080AD
:1035A000A820FFF7BFFF2081AA20FFF7BBFF6081A3
:1035B000AC20FFF7B7FFA08110BD000090050020F0
:1035C000214808B5016841F400110160016801F467
:1035D00000110091016841F480010160006800223F
:1035E00000F48000009011460B20FEF71FF90B201D
:1035F000FEF711F9002211461020FEF717F91020EE
:10360000FEF709F9002211461120FEF70FF91120EB
:10361000FEF701F9002211462F20FEF707F92F20AF
:10362000FEF7F9F8002211463A20FEF7FFF83A209B
:10363000FEF7F1F8002211464620FEF7F7F8BDE844
:1036400008404620FEF7E7B83038024070B52448FD
:1036500086B00024016841F080010160016801F03A
:1036600080010591016841F001010160016801F0EC
:1036700001010591016841F008010160016801F054
:1036800008010591016841F004010160016801F041
:1036900004010591016841F0020101600068114ECA
:1036A00000F002004FF4A045059000222946304664
:1036B000FDF7FCFB01200095CDE9010403200390F8
:1036C00069463046FDF70EFB182000900648CDE90C
:1036D000010469460548FDF705FB06B070BD000012
:1036E00030380240000C024000001110000402407B
:1036F00010B51D488AB04FF080410160532100246D
:10370000C0E901144FF6FE71C0E90314FEF79FFBF8
:103710004FF48050049004A91348FEF70BFC1248A4
:10372000FEF7ABFE089408A90F480994FEF767FB63
:103730000120CDE900400294002269460A48039422
:10374000FEF70CFE042269460748FEF707FE082232
:1037500069460548FEF702FE0C2269460248FEF75C
:10376000FDFD0AB010BD0000EC02002010B51F489E
:103770008EB01D49016053210024C0E9011441F2BB
:103780008731C0E90314FEF762FB4FF480500790C5
:1037900007A91648FEF7CEFB1448FEF7E6FF0B9488
:1037A0000BA912480C94FEF72AFB6020CDE9000417
:1037B0000294002269460D480494FEF76EFF04222D
:1037C00069460A48FEF769FF082269460748FEF77E
:1037D00064FF0C2269460548FEF75FFF0348FEF7C9
:1037E00041FF0EB010BD000000040040280300207F
:1037F00010B518488AB01649016053210024C0E969
:1038000001144FF6FE71C0E90314FEF720FB4FF4DC
:103810008050049004A90F48FEF78CFB0D48FEF77A
:103820002CFE089408A90B480994FEF7E8FA012039
:10383000CDE9004002940422694606480394FEF74D
:103840008DFD0C2269460348FEF788FD0AB010BDC5
:1038500000080040640300200848074901604FF455
:1038600061414160002181600C22C160C0E9041205
:103870008161C161FFF74BB800100140A003002037
:10388000FEE770470907090E002806DA00F00F006E
:1038900000F1E02080F8141D704700F1E02080F86E
:1038A0000014704710B5FDF761FFFEF7A2FA044857
:1038B000016811B10168491E00E00421016010BDDA
:1038C000F801002030B5224893B00025016841F08E
:1038D00080510160006800F0805011901D4801681F
:1038E00041F4804101600068022400F4804011909E
:1038F0000120009001908005CDE906400820089045
:103900004FF4A870CDE9090404200B906846FEF737
:10391000DDF80CA90F2081E831004FF4A0500F9082
:10392000109005210CA8FDF7B3FFFEF751F84FF4F6
:103930007A71B0FBF1F0FEF748FA0420FEF738FA8E
:1039400000221146501EFDF771FF13B030BD00007C
:1039500040380240007000401048016841F4700196
:1039600001600F48016841F0010101600C4A00212B
:103970000832116002680B4B1A400260031D0A4AAC
:103980001A60026822F48022026005480C3001604F
:1039900002495806803908607047000088ED00E051
:1039A00000380240FFFFF6FE103000240148FEF709
:1039B000A6BD0000EC0200200148FEF7A0BD0000FB
:1039C00064030020F0B50268234B244D244E254F9C
:1039D000254C4FF0804C984209D0604507D0A84252
:1039E00005D0B04203D0B84201D0A04204D122F0A9
:1039F000700E4A6842EA0E0298421BD0604519D008
:103A0000A84217D0B04215D0B84213D0A04211D06E
:103A1000164DA8420ED0164DA8420BD0154DA84207
:103A200008D0154DA84205D0144DA84202D0144D1F
:103A3000A84203D122F44075CA682A4302608A680A
:103A4000C2620A688262984201D0A04201D109692B
:103A5000016301214161F0BD00000140000400400C
:103A600000080040000C00400004014000400140FC
:103A7000004401400048014000180040001C004084
:103A80000020004010B50123046A8B409C4304626F
:103A9000036A8A401343036210BD10B5846842EA8A
:103AA000032224F47F440A432243826010BD8268CB
:103AB00022F070020A4342F0070181607047000063
:103AC00030B5026A22F001020262026A4368846928
:103AD0000D6824F07304254322F002048A6822430F
:103AE0000B4CA04202D00B4CA0420BD122F0080498
:103AF000CA6823F4407322434C6922F004021C4339
:103B00008B6923434360856149684163026230BD2C
:103B1000000001400004014030B5026A22F01002AA
:103B20000262026A436884690D6824F4E64444EA48
:103B300005248D6822F0200242EA05120D4DA842AC
:103B400002D00D4DA8420ED1CD6822F0800242EA8B
:103B500005124D6923F4406343EA85038D6922F021
:103B6000400243EA850343608461496881630262DD
:103B700030BD0000000001400004014030B5026A81
:103B800022F480720262036A4268C46923F40073FB
:103B900024F073050C682C438D6843EA05230D4D12
:103BA000A84202D00C4DA8420ED1CD6823F4006388
:103BB00043EA05234D6922F4405242EA05128D6919
:103BC00023F4806342EA05124260C4614968C1631C
:103BD000036230BD000001400004014030B5026ABC
:103BE00022F480520262046A4268C3690D6823F4B9
:103BF000E64343EA05238D6824F4005444EA05347F
:103C0000084DA84202D0084DA84204D14D6922F4C3
:103C1000804242EA85124260C361496801640462DD
:103C200030BD0000000001400004014010B5036AEF
:103C3000046A24F001040462846924F0F00444EA74
:103C4000021423F00A020A438461026210BD0000DC
:103C500070B5046A24F0010404628469056A164E92
:103C6000B04214D0B0F1804F11D0144EB0420ED0FB
:103C7000134EB0420BD0134EB04208D0124EB04299
:103C800005D0124EB04202D0114EB04203D124F002
:103C90000304144303E024F0030242F001041A0772
:103CA00024F0F00444EA126225F00A0301F00A014C
:103CB00019438261016270BD0000014000040040B0
:103CC00000080040000C004000040140004001409A
:103CD0000018004010B5036A23F0100303628369E3
:103CE000046A23F4704343EA023224F0A00343EA57
:103CF00001118261016210BD30B5046A24F0100424
:103D000004628469056A24F4407444EA022222F4BD
:103D100070444FF6FF7202EA03322243A02425F0DA
:103D2000A00304EA011119438261016230BD10B59C
:103D300090F83A10222901D0022010BD8168B1F517
:103D4000805F11D00169002901681FD0496801F026
:103D50007F03816A4A1C82620B70C18D491E09046F
:103D6000090CC18518D02BE00269816A002A02681B
:103D7000526805D0D2B20A80816A491C8162ECE7A0
:103D8000C2F308020A80816A891CF7E74A68816ADF
:103D90004B1C83620A70E0E70168CA6822F02002C7
:103DA000CA600168CA6822F48072CA6001684A6900
:103DB00022F001024A61202180F83A10FEF7B2FE9B
:103DC000002010BD2DE9F04104460068016921F48E
:103DD0004052E168114301612168C86849F20C62F0
:103DE00090432369A268E5691A4363692B431A4328
:103DF0000243CA602168486920F44072A0691043F8
:103E00004861E1696425B1F5004F9748974A2168F8
:103E10004FF032083FD0914201D081427CD1FDF772
:103E200007FE00EBC00101EB001061688900B0FBE8
:103E3000F1F6FDF7FDFD00EBC00101EB001061683C
:103E40008900B0FBF1F0B0FBF5F06FF018014843CA
:103E500006EB800108EB0110B0FBF5F000F0F00676
:103E6000FDF7E6FD00EBC00101EB00106168890081
:103E7000B0FBF1F0B0FBF5F006EB0016FDF7D8FD56
:103E800000EBC00101EB001061688900B0FBF1F7A5
:103E9000FDF7CEFDD2E0914201D081423DD1FDF748
:103EA000C7FD00EBC00101EB001061684900B0FBE9
:103EB000F1F0B0FBF5F00601FDF7BAFD00EBC00133
:103EC00001EB001061684900B0FBF1F7FDF7B0FDB0
:103ED00000EBC00101EB001061684900B0FBF1F09C
:103EE000B0FBF5F06FF01801484307EB800108EBD9
:103EF000C100B0FBF5F000F0F80006EB4006FDF75E
:103F000097FD00EBC00101EB001061684900B0FBB8
:103F1000F1F7FDF78DFD3CE055E0FDF773FD00EB9B
:103F2000C00101EB001061684900B0FBF1F0B0FB8B
:103F3000F5F00601FDF766FD00EBC00101EB001096
:103F400061684900B0FBF1F7FDF75CFD00EBC001D3
:103F500001EB001061684900B0FBF1F0B0FBF5F037
:103F60006FF01801484307EB800108EBC100B0FB7C
:103F7000F5F000F0F80006EB4006FDF743FD00EB1E
:103F8000C00101EB001061684900B0FBF1F7FDF7DB
:103F900039FD00EBC00101EB001061684900B0FB86
:103FA000F1F0B0FBF5F06FF01801484307EB80012A
:103FB00008EBC100B0FBF5F000F0070021683044C9
:103FC0008860BDE8F081FDF71DFD00EBC00101EB4D
:103FD000001061688900B0FBF1F6FDF713FD00EBFE
:103FE000C00101EB001061688900B0FBF1F0B0FB8B
:103FF000F5F06FF01801484306EB800108EB011063
:10400000B0FBF5F000F0F006FDF7FCFC00EBC001A2
:1040100001EB001061688900B0FBF1F0B0FBF5F036
:1040200006EB0016FDF7EEFC00EBC00101EB001003
:1040300061688900B0FBF1F7FDF7E4FC00EBC0011B
:1040400001EB001061688900B0FBF1F0B0FBF5F006
:104050006FF01801484307EB800108EB0110B0FB3B
:10406000F5F000F00F00A9E7001401400010014036
:1040700090F83910212901D0022070478168B1F5EC
:10408000805F016A0BD04A1C0262026809785160A5
:10409000C18C491E0904090CC1840ED017E009889F
:1040A0000268C1F30801516001690029016A02D068
:1040B000491C0162ECE7891CFBE70168CA6822F031
:1040C0008002CA600068C16841F04001C160002000
:1040D00070472DE9F0471D4690460E460446FCF712
:1040E000EBFE07465FEA08004FF000094FF020089A
:1040F00008D032E0681C05D095B1FCF7DDFEC01B8E
:10410000A8420DD82068006836EA0000F2D129E004
:10411000681C22D025B1FCF7CFFEC01BA8421CD9D9
:104120002068C16821F08001C1602068C16821F069
:104130002001C1602068C16821F48071C1602068DD
:10414000416921F00101416184F8398084F83A80A5
:1041500084F838900320BDE8F0872068006836EACC
:104160000000D5D00020F6E70148FEF75CBB000058
:10417000A00300200148FEF756BB0000E00300202A
:10418000FEE700000FB4084B10B504A902AA03987B
:1041900002F076F8044602A9002002F008FC20464E
:1041A00010BC5DF814FB0000AF69000803B401986F
:1041B0004100009850EAC12018BF04204A0D18BFE2
:1041C00040F0010040F2FF72B2EB515F08BF40F0D7
:1041D0000200012808BF052002B07047000000005F
:1041E00070B5C1482DED020B2DED0E8B82B0119DE7
:1041F00025F000449FEDBEDB9FEDBFEB84423EDB2C
:10420000A4F140511098A1F17F6108430FD0BC4840
:10421000844202DC28D1109830B39DED100B02B01F
:10422000BDEC0E8B02B0BDE8704001F01DBF9DEDEE
:10423000100B53EC1D2B51EC100BFCF76FF89DEDA0
:10424000100B41EC180B53EC1E2B51EC100BFCF730
:1042500065F853EC182BFBF7BAFF41EC100B02B0DA
:10426000BDEC0E8B02B070BD012001F051FF02B019
:10427000BDEC0E8B02B0BDE8704001F009BFA14853
:104280009FEDA18B844256DA9DED100BB4F1795F5E
:104290000ADA51EC100BFFF789FF042808BF01F080
:1042A00017FF9DED100BDAE753EC102B51EC100BC0
:1042B000FCF734F841EC190B95480621B0EE490A99
:1042C000F0EE690A784401F0A3FD53EC192B51EC90
:1042D000100BFCF723F841EC1A0B8E48B0EE490A9C
:1042E000F0EE690A0421784401F092FD53EC192B99
:1042F00051EC100BFCF712F853EC182BFBF767FF8F
:1043000041EC100B51EC1A0B53EC102BFCF778F826
:10431000CDE900019DED000B53EC102B9DED100B32
:1043200051EC100BFBF7FAFF9DED101B53EC112B1A
:10433000FBF74DFFD2E09DED100B51EC100B02F09E
:104340002FFE53EC182BFBF7E6FF9FED730BCDE927
:10435000000153EC102B9DED000B51EC100BFBF703
:10436000DDFF41EC190B6E480621B0EE490AF0EE74
:10437000690A784401F04CFD53EC192B51EC100BF9
:10438000FBF7CCFF41EC1B0B6648B0EE490AF0EEA0
:10439000690A0421784401F03BFD53EC192B51ECE0
:1043A000100BFBF7BBFF53EC182BFBF710FF41EC96
:1043B0001C0B51EC190B04F0CDFE41EC180B5A48C4
:1043C0009FED5BABA04222DC53EC1C2B51EC1B0B92
:1043D000FCF716F8CDE900019DED000B51EC180B30
:1043E00053EC102BFBF79AFF53EC182BFBF7EFFE67
:1043F00053EC1A2BFBF792FF53EC1D2BFBF788FFB6
:1044000053EC1E2BFBF787FF41EC100B5FE08DEDAB
:10441000008B002000909DED000B51EC180B53EC2D
:10442000102BFBF7D4FE9DED000B41EC1E0B53EC63
:10443000102B51EC100BFBF771FF53EC192BFBF712
:104440006AFF53EC1E2BFBF7DBFF41EC190B53EC1F
:104450001C2B51EC1B0BFBF7D3FF41EC1B0B53EC5C
:104460001A2B51EC190BFBF759FF53EC1D2BFBF7E3
:1044700052FF41EC190B53EC1A2B51EC180BFBF7C4
:104480004DFF53EC1B2BFBF749FF53EC192BFBF7AC
:104490003FFF9DED000B41EC180B53EC1A2B51EC38
:1044A000100BFBF73BFF9FED249B53EC192BFBF705
:1044B00032FF41EC100B51EC180B53EC102BFBF7B7
:1044C00027FF53EC192BFBF726FF41EC100B002DB7
:1044D0003FF7C5AE51EC100B81F0004141EC100BE1
:1044E000BDE60000000000000000F03F00000000FA
:1044F000075C143326A6913C182D4454FB21F93F48
:104500000000F07F0000E03F000000000000F03FEE
:10451000605000006E500000000000000000E03F0E
:10452000B24F0000C04F00003333EF3F00000000E7
:104530000000000000000040182D4454FB21E93F1A
:1045400070B59B482DED020B2DED068B079D25F0D8
:104550000044A04218DC9748844202DC0AD1069845
:1045600040B19DED060BBDEC068B02B0BDE870407E
:1045700001F07ABD002DCCBF9FED8F0B9FED900B0E
:10458000BDEC068B02B070BD8F48A04215DD8F4890
:10459000A042D8BF4FF0FF3458DD9DED060B51EC23
:1045A000100BFFF703FE042808BF01F091FD9DEDFD
:1045B000060BBDEC068B02B070BD9DED060B51ECF9
:1045C000100B02F0EDFCCDE9060181489FED828BD6
:1045D000A0423CDD8248A0421FDD00249FED82AB5B
:1045E0009DED060B53EC1A2B51EC100BFBF7EFFD76
:1045F0009DED060B41EC190B53EC1A2B51EC100BF3
:10460000FBF78CFE53EC182BFBF782FE53EC192BB7
:10461000FBF7F6FECDE9060149E09DED060B01240E
:1046200053EC182B51EC100BFBF7D1FD9DED060B55
:1046300041EC190B53EC182B51EC100BFBF768FEF7
:1046400053EC192BFBF7DCFECDE906012FE068489F
:10465000A0421FDD02249FED689B9DED060B53ECED
:10466000192B51EC100BFBF759FE53EC182BFBF7F1
:10467000AEFD9DED060B41EC180B53EC192B51ECE4
:10468000100BFBF745FE53EC182BFBF7B9FECDE9F9
:1046900006010CE09DED060B032453EC102B9FED5F
:1046A000580B51EC100BFBF7ABFECDE906019DED6D
:1046B000060B53EC102B51EC100BFBF72FFE41ECCB
:1046C000180B53EC182BFBF729FE41EC190B4E4845
:1046D0000621B0EE490AF0EE690A784401F098FB31
:1046E00053EC182B51EC100BFBF718FE41EC180B98
:1046F0004648B0EE490AF0EE690A0521784401F017
:1047000087FB53EC192B51EC100BFBF707FE41EC28
:10471000100B51EC180B53EC102B002C0EDAFBF79E
:1047200056FD9DED061B53EC112BFBF7F7FD9DEDA0
:10473000061B53EC112BFBF7EEFD35E0FBF747FDB5
:104740009DED061B53EC112BFBF7E8FD41EC100B24
:104750002F48784400EBC40090ED001B51EC100B87
:1047600053EC112BFBF7D4FD9DED061B53EC112BE5
:10477000FBF7CEFD41EC100B2648784400EBC4005B
:1047800090ED001B51EC100B53EC112BFBF7C3FD0C
:1047900041EC100B002DA2BFBDEC068B02B070BD2A
:1047A00051EC100B81F0004141EC100B01E70000CF
:1047B000000010440000F07F182D4454FB21F93F05
:1047C000182D4454FB21F9BF0000DC3F0000203EBF
:1047D0000000F33F00000000000000000000F03F78
:1047E0000000E63F00000000000000000000004064
:1047F0000080034000000000000000000000F83FBF
:10480000000000000000F0BF8A4D0000404D000095
:10481000CA4C0000824C000070B56B4E2DED040BAD
:104820002DED028B82B0DDF81CC0DDE905235C4272
:104830002CF000411C4341EAD474049D22F0004056
:10484000B44205D86C422C4340EAD474B4420BD92C
:104850009DED061B9DED040B02B0BDEC028B04B078
:10486000BDE8704001F00ABCACF14054A4F17F6493
:104870001C430BD0022404EAAC7444EAD27405430E
:104880009FED538B9FED542B07D015E09DED040B4E
:1048900051EC100B02F090F842E0002C11BF012CFB
:1048A0009DED040B02B0BDEC028B04BF04B070BDE3
:1048B000022C38D0032C3BD00B439FED491B9FEDBE
:1048C0004A0B0AD0B14218D1B04209D121F080413F
:1048D00020F08040079105900FE0002A15DA10E0E3
:1048E000434B7B44002C08BF93ED000B0DD0012CF3
:1048F00010D0022C17D0032C1AD0B0421DD1002AA0
:1049000003DAB0EE410AF0EE610A02B0BDEC028BB0
:1049100004B070BD93ED000B51EC100B81F0004121
:1049200041EC100BF1E7B0EE480AF0EE680AECE754
:10493000B0EE420AF0EE620AE7E7401A00153C28A2
:10494000C8BF8DED000B19DCBCF1000FBEBF10F12C
:104950003C0F9FED290B8DED000B0FDB9DED060B42
:1049600053EC102B9DED040B51EC100BFBF748FDA5
:1049700002F016FB02F020F8CDE90001002C08BF80
:104980009DED000BC1D0012C10D0022C9FED1C0B13
:1049900053EC102B9DED000B51EC100B0DD0FBF7E1
:1049A000B7FC53EC182BFBF7B3FCB9E7019880F088
:1049B000004001909DED000BA7E7FBF7A9FC53EC2D
:1049C000182BFBF7A8FCABE70000F07F000000000D
:1049D000182D4454FB210940182D4454FB2109C0D3
:1049E000182D4454FB21F9BF182D4454FB21F93FE5
:1049F000E24B00000000000000000000000000008A
:104A0000075C143326A6A13C10B52F499FED2C1B43
:104A10002DED020B84B0059820F000408842D8BFED
:104A20009DED040B2DDD2949884209D1049840B938
:104A30004FF0010001F06CFB01F02AFB06B010BD45
:104A400005DB9DED040B01F00FFB06B010BD6846C1
:104A50009DED040B00F008FF10F0030004BF9DED76
:104A6000021B9DED000B0CD001280ED09DED021B0A
:104A70009DED000B022817D0012001F045FA06B089
:104A800010BD01F00DF906B010BD9DED021B9DEDAE
:104A9000000B012001F038FA51EC100B81F00041BD
:104AA00006B041EC100B10BD01F0FAF851EC100B00
:104AB00081F0004106B041EC100B10BD0000000079
:104AC0000000000000000000FB21E93F0000F07F33
:104AD0002DE9F04D2DED040B2DED0E8B96B0DDE99B
:104AE0002550279CDDF890A025F0004624F00048D2
:104AF000BAF1000F14BF0121002101EB4502FC496E
:104B000053184A1093422AD3002814BF01230023CC
:104B100003EB44030B44F7498B4220D358EA0001CE
:104B20009FEDF59B76D0DFF8D8B35D4503D1BAF1A0
:104B3000000F05D188E0BAF1000F08BF002100D0B6
:104B4000012101EB450111F5001F08D8002814BF11
:104B50000121002101EB440111F5001F0BD99DED4E
:104B6000261B9DED240B16B0BDEC0E8B04B0BDE8EA
:104B7000F04D01F083BA0027002DBCBFE149884504
:104B800021DAE1498845A8BF02271CDAC3451ADCAF
:104B9000DE4901EB2851142908DDC1F1340220FA65
:104BA00002F101FA02F282420DD108E058B9C1F1D6
:104BB000140228FA02F101FA02F2424503D101F08F
:104BC0000101C1F1020756EA0A0124D1002C22DAC0
:104BD000002D18BF022F01D0012F0AD0022001F0B2
:104BE00097FA16B0BDEC0E8B04B0BDE8F04D01F0A5
:104BF00023BA022001F08CFA01F01EFA51EC100BDE
:104C000081F0004141EC100B16B0BDEC0E8B04B0EE
:104C1000BDE8F08D18E09FEDBEAB9FEDBF8B002887
:104C200071D1B848804522D105F1804010F580103F
:104C300008BFBAF1000F07D0B3450ADC002CA8BFAB
:104C40009DED260BE0DA0DE0B0EE490AF0EE690AC0
:104C5000DAE7002C06DA9DED260B51EC100B81F003
:104C600000416FE0AE48784490ED000BCCE7D845AA
:104C70004DD1002C48DA2EB186423AD1BAF1000F5C
:104C800042D126E0BAF1000F13D0022001F040FA21
:104C900001F00EFA8DED020B9DED240B8DED000B56
:104CA00010EE900A039961F31E0003909DED020B34
:104CB000AAE78DED02AB9DED240B1AEE901A10EED3
:104CC000900A8DED000B61F31E0003909DED020B29
:104CD0009AE78DED028B9DED240B18EE901A10EEE5
:104CE000900A8DED000B61F31E0003909DED020B09
:104CF0008AE709DA9DED240B51EC190B53EC102BCC
:104D0000FBF77EFB1EE020E09DED240B7CE7864256
:104D10001BDAB4F1804F0DD0A4F10050B0F1FF5078
:104D200013D1002D11DB9DED240B51EC100B04F081
:104D300011FA07E09DED240B53EC102B51EC100BF6
:104D400000F0C2BC41EC100B5EE79DED240B51EC72
:104D5000100B02F025F9BAF1000FCDE90E0142D196
:104D60009FED710B46B3A6F1E040B0F17F600CD02F
:104D70005E4538D1002D00DAA7B3022F0CBF012009
:104D80004FF0FF30FBF7ABFBDCE7002D01DD002C23
:104D90000DDA002D01DD002C1FDB002D16DA002CB2
:104DA00014DB012F08BF9FED620B3FF42DAFB0EE77
:104DB0004A0AF0EE6A0A27E7022F18BF002D0CD02E
:104DC000012F0AD1002DFFF61FAF06E0002DB8BF5E
:104DD000002C08DA012F3FF417AFB0EE480AF0EECE
:104DE000680A11E71BE0012000EBE57050EA0701BB
:104DF00015D0791EB0EE498AF0EE698A084308BFE3
:104E00009FED4D8B4E480025804570DD4D494E4845
:104E1000884514DDB0420DDB002C19DB2FE00120AA
:104E200001F076F916B0BDEC0E8B04B0BDE8F04D84
:104E300001F02EB9B34502DC002C09DC1FE08642EC
:104E400002DA002C1BDA03E05E452BDD002C16DDB8
:104E5000022001F05DF901F02BF98DED020B53EC0E
:104E60001A2B51EC180BFBF759FACDE90001039905
:104E7000019861F31E0003909DED020BC4E6022031
:104E800001F046F901F024F910EE901A18EE900A9C
:104E90008DED020B8DED008B61F31E0003909DEDF7
:104EA000020BB1E69DED0E0B53EC192B51EC100BE0
:104EB000FBF72EFA9FED260BCDE9080153EC102BE2
:104EC0009DED080B51EC100BFBF728FA9FED221B10
:104ED00053EC112BFBF71FFA9DED081B53EC112B24
:104EE000FBF71CFA9FED1E1B53EC112B3CE08CE0F2
:104EF000FFFF1F00FFFF0F00000000000000F03F59
:104F00000000F03F0000F07F0000404301FCFFFF85
:104F1000000000000000F07F000000000000000022
:104F20005E4800000000000000000000000000805B
:104F3000000000000000F0FF000000000000F0BFD3
:104F40000000E0410000F043FFFFEF3F00000000E1
:104F5000000000000000D03F555555555555D53F30
:104F6000000000000000E03FFBF7D5F99DED080BC5
:104F700041EC1A0B53EC102B51EC100BFBF7CEF954
:104F800053EC1A2BFBF7CAF941EC1A0B9FEDFE0B01
:104F900053EC102B9DED080B51EC100BFBF7BEF9F9
:104FA00041EC1B0B9FEDFA0B51EC1A0B53EC102B41
:104FB000FBF7B4F941EC1A0B9FEDF70B53EC102BF8
:104FC0009DED080B51EC100BFBF7A8F953EC1A2BD5
:104FD000FBF79EF941EC1A0B51EC1B0B53EC1A2B0F
:104FE000FBF7F5F80690CDE906519DED060B53EC65
:104FF0001B2B51EC100BFBF78BF953EC1A2BFBF727
:105000008AF941EC100B00F0A1B90020B6F5801F21
:105010000EDA9FEDE30B53EC102B9DED0E0B51ECD4
:10502000100BFBF77BF9CDE90E016FF034000E4653
:1050300000EB2650A0F2FF37C6F31300DA4940F028
:105040007F6646F040568842D8BF002408DDD74925
:105050008142C8BF012403DC0024A6F580167F1C12
:10506000D348784400EBC4000F9690ED00CB9DED43
:105070000E0B53EC1C2B51EC100BFBF749F99DED7B
:105080000E0B41EC1B0B53EC1C2B51EC100BFBF7E4
:105090009EF841EC100B51EC190B53EC102BFBF765
:1050A000AFF941EC1D0B51EC1B0B53EC1D2BFBF727
:1050B00035F941EC1A0BBF488DED10AB78441095D3
:1050C00090ED000B4FF0005040EA660000EB84408A
:1050D0008DED080B00F5002009909DED080B53ECB9
:1050E0001C2B51EC100BFBF713F99DED0E1B53EC31
:1050F000112BFBF710F941EC100B53EC102B9DED2D
:10510000100B51EC100BFBF709F99DED080B41EC6E
:105110001C0B53EC102B9DED100B51EC100BFBF7FF
:10512000FDF853EC1B2BFBF7F6F853EC1C2BFBF7AD
:10513000EFF853EC1D2BFBF7F1F841EC1C0B53EC93
:105140001A2B51EC1A0BFBF7E9F841EC1B0B9A48B0
:105150000621B0EE4B0AF0EE6B0A784400F058FEE0
:10516000B0EE401AF0EE601AB0EE41DAF0EE61DA1D
:1051700053EC1B2B51EC1B0BFBF7D0F853EC1D2B06
:10518000FBF7CCF89DED100B41EC1B0B53EC1A2BED
:1051900051EC100BFBF71BF853EC1C2BFBF7BEF884
:1051A00053EC1B2BFBF713F89DED100B41EC1B0B85
:1051B00053EC102B51EC100BFBF7B0F841EC1D0B2E
:1051C0009FED7FEB53EC1E2BFBF701F853EC1B2BF1
:1051D000FAF7FDFF0890CDE908519DED080B53EC5F
:1051E0001E2B51EC100BFBF793F853EC1D2BFBF728
:1051F0008FF853EC1B2BFBF78EF89DED080B41EC61
:105200001D0B53EC102B9DED100B51EC100BFBF70D
:1052100085F841EC1B0B53EC1A2B51EC1D0BFBF7E3
:105220007DF89DED080B41EC1A0B53EC102B51EC63
:105230001C0BFBF773F853EC1A2BFAF7C8FF41EC81
:105240001A0B51EC1B0B53EC1A2BFAF7C0FF0C9006
:10525000CDE90C519DED0C0B53EC1B2B51EC100BBD
:10526000FBF756F853EC1A2BFBF755F841EC1B0BE8
:105270009FED550B53EC102B9DED0C0B51EC100BCF
:10528000FBF74CF841EC1A0B9FED510B51EC1B0B4B
:1052900053EC102BFBF742F841EC1B0B9FED4E0B30
:1052A00053EC102B9DED0C0B51EC100BFBF736F86B
:1052B00053EC1B2BFAF78BFF41EC100B484878445A
:1052C00000EBC40090ED001B51EC100B53EC112BC4
:1052D000FAF77DFF41EC1B0B3846FBF700F9CDE9EF
:1052E000080153EC1B2B51EC1A0BFAF770FF41EC41
:1052F000100B3C48784400EBC40090ED00CB51EC1F
:10530000100B53EC1C2BFAF762FF9DED081B53ECBE
:10531000112BFAF75CFF0690CDE906519DED080BC5
:1053200053EC102B9DED060B51EC100BFAF7F0FF30
:1053300053EC1C2BFAF7ECFF53EC1A2BFAF7E8FFAF
:1053400053EC1B2BFAF7E7FF41EC100B9DED261BEE
:1053500053EC102B8DED001B00959DED260B51ECB1
:10536000100BFAF7DBFF9DED000B41EC1A0B53EC31
:10537000102B9DED260B51EC100BFAF7C9FF9DED9C
:10538000061B53EC112B2FE0000000604715F73F80
:10539000FE822B654715F73F44DF5DF80BAE543EA8
:1053A00000000000000040438E9803007AB60B0016
:1053B00012430000084400004A42000000000000C0
:1053C0000000000000000840000000E009C7EE3FB8
:1053D000FD033ADC09C7EE3FF5015B14E02F3EBE4A
:1053E000D640000090400000FAF798FF53EC1A2BCB
:1053F000FAF7EDFE9DED060B41EC1A0B53EC102B6A
:105400009DED000B51EC100BFAF788FFCDE90C0174
:105410009DED0C0B51EC1A0B53EC102BFAF7D7FE49
:10542000CDE902010C46AA498C422FDB611A0843E0
:1054300018D19DED0C0B53EC102B9DED020B51EC94
:10544000100BFAF765FF41EC1B0B9FEDA30B51EC22
:105450001A0B53EC102BFAF7BAFE53EC1B2BFBF78D
:1054600087FA2DD2022000F053FE00F021FE10EE4C
:10547000901A18EE900A8DED020B8DED008B61F302
:105480001E0003909DED020BFFF7BEBB944A24F073
:105490000041914214D39349214408437FF4EFAC77
:1054A0009DED0C0B53EC102B9DED020B51EC100BF2
:1054B000FAF72EFF53EC1A2BFBF75AFA7FF6DFAC04
:1054C00024F000408849894A002601EB205182429D
:1054D0002BDA481C4FF4801121FA00F02044844A52
:1054E000C0F30A517A44A1F2FF3192ED000B814AD8
:1054F0008DED080BCA4020EA0202C0F3130040F40D
:105500008010C1F1140120FA01F60992002CB8BFF5
:1055100076429DED080B53EC102B9DED0C0B51ECDE
:10552000100BFAF7F5FECDE90C019DED0C0B51ECDB
:105530001A0B53EC102BFAF74AFE9FED6F0B0890F5
:10554000CDE9085153EC102B9DED080B51EC100BDD
:10555000FAF7E4FE41EC1B0B9FED690B53EC102BAB
:105560009DED080B51EC100BFAF7D8FE9DED0C0BDE
:1055700041EC1C0B53EC102B9DED080B51EC100B68
:10558000FAF7C6FE53EC1A2BFAF7C5FE9FED5E1B29
:1055900053EC112BFAF7C2FE53EC1C2BFAF717FE53
:1055A00041EC1A0B51EC1B0B53EC1A2BFAF70FFEC4
:1055B000CDE902019DED020B53EC1B2B51EC100BBE
:1055C000FAF7A6FE53EC1A2BFAF7A5FE9DED020B97
:1055D00041EC1A0B53EC102B51EC100BFAF79EFE1A
:1055E000CDE908014A489DED080B0521784400F0FB
:1055F0000FFC9DED081B51EC100B53EC112BFAF72F
:105600008DFE9DED021B53EC112BFAF784FECDE9C4
:1056100006019DED020B53EC1A2B51EC100BFAF71F
:105620007DFE53EC1A2BFAF7D2FD9FED3B0B41ECBC
:105630001A0B53EC102B9DED060B51EC100BFAF7E7
:1056400067FE9DED060B41EC1B0B53EC102B9DED03
:10565000020B51EC100BFAF761FE53EC1B2BFAF71F
:10566000CFFE53EC1A2BFAF753FE9DED021B53ECC1
:10567000112BFAF74DFE53EC192BFAF74CFECDE93E
:10568000020101EB065001150029C8BF039015DC8B
:105690009DED020B324651EC100BFBF7E9F8FEF7DB
:1056A00085FD042808BF00F013FD32469DED020B76
:1056B00051EC100BFBF7DCF8CDE902019DED020B7C
:1056C00051EC180B53EC102BFAF728FEFFF73ABBFE
:1056D0000000904000000000FE822B654715973CBB
:1056E00000CC904000346F3F01FCFFFF0000E03F22
:1056F000E03F0000FFFF0F0000000000432EE63FE8
:10570000396CA80C615C20BEEF39FAFE422EE63FF0
:10571000E83D000000000000000000000000004024
:1057200010B52F499FED2C1B2DED020B84B0059871
:1057300020F000408842DCBF00209DED040B32DDEC
:105740002849884209D1049840B94FF0010000F07F
:10575000DFFC00F09DFC06B010BD05DB9DED040BE9
:1057600000F082FC06B010BD68469DED040B00F011
:105770007BF810F0030011D0012818D09DED021B1A
:105780009DED000B02281AD000F08AFA51EC100BA4
:1057900081F0004106B041EC100B10BD9DED021BE5
:1057A0009DED000B012000F0AFFB06B010BD9DED9C
:1057B000021B9DED000B00F073FA06B010BD012036
:1057C00000F0A2FB51EC100B81F0004106B041EC5F
:1057D000100B10BD000000000000000000000000E1
:1057E000FB21E93F0000F07F00B52DED048BB0EE0A
:1057F000409AF0EE609A83B051EC190BFBF74FF82A
:1058000041EC180B18EE100A18EE901A8DED008B73
:10581000002818BF0120084320F00040C0F17F603D
:1058200000F1E040C00F14D019EE101A19EE900AE2
:105830008DED009B002918BF0121084320F0004096
:10584000C0F17F6000F1E040C00F04BF012000F014
:105850005FFCB0EE480A03B0F0EE680ABDEC048BC2
:1058600000BD0000000000002DE9F14F04462DEDC1
:10587000020B2DED088B8AB09FEDE70B80ED020B3C
:10588000139EE74826F0004585420ADC9DED120B89
:10589000002084ED000B0AB0BDEC088B03B0BDE81E
:1058A000F08FE0489FEDE0AB9FEDE1BBA84247DD04
:1058B000E14F9FEDE39B9FEDE48B9DED120B53ECCD
:1058C0001A2B51EC100B002E1CDDFAF721FD41ECD8
:1058D000100BBD4208D053EC1B2B51EC100BFAF708
:1058E00017FDC4E900010BE053EC192B51EC100B30
:1058F000FAF70EFD53EC182BFAF70AFDC4E9000184
:105900000120C8E7FAF763FC41EC100BBD4208D058
:1059100053EC1B2B51EC100BFAF759FCC4E90001B6
:105920000BE053EC192B51EC100BFAF750FC53EC35
:10593000182BFAF74CFCC4E900014FF0FF30AAE73E
:10594000C348A84279DB9DED120B51EC100B01F01E
:1059500027FB41EC180B9FEDC00B53EC102BFAF713
:10596000DDFC9FEDBF1B53EC112BFAF730FCFAF76F
:10597000E8FD0746FAF7B3FD41EC190B53EC1A2B7F
:10598000FAF7CCFC53EC182BFAF7C5FC41EC180BDA
:1059900053EC1B2B51EC190BFAF7C0FCDFF8C8A233
:1059A00041EC100B4FEA15580125FA4453EC102B2B
:1059B00051EC180BFAF7ACFC032DC4E900013DD003
:1059C000C1F30A5005EB4511A8EB000011398142E3
:1059D00034DA0AEB051BB0EE48AA9BED000BF0EEA3
:1059E00068AA53EC102B51EC190BFAF797FC41EC19
:1059F0001B0B51EC1A0B53EC1B2BFAF789FC41ECF7
:105A0000180B51EC1A0B53EC182BFAF781FC53ECE2
:105A10001B2BFAF77DFC9BED020B41EC1A0B53ECB0
:105A2000102B51EC190BFAF779FC53EC1A2BFAF7FF
:105A30006FFC41EC100B6D1CB8E70EE0002EA8BF08
:105A40003846BFF628AF94ED000B51EC100B81F0F7
:105A50000041C4E9000178421DE7C6F3130040F499
:105A6000801EC6F30A50A0F2F530471100F01F0562
:105A7000C5F12000DDF848B008900020069007909E
:105A80000520EC467949002D07EB0002794408BF58
:105A900051F8221009D051F8223001EB8201AB40BD
:105AA0004A68089922FA01F11943A1FB0E26A1FBCD
:105AB0000B131A449A4234BF0123002303EB060858
:105AC0000CEB8003D3E901A60E448E4234BF0121C2
:105AD000002192448A4411B1924502D903E09245D3
